{
  "contractName": "RPG",
  "abi": [
    {
      "inputs": [],
      "stateMutability": "nonpayable",
      "type": "constructor"
    },
    {
      "anonymous": false,
      "inputs": [
        {
          "indexed": true,
          "internalType": "address",
          "name": "by",
          "type": "address"
        },
        {
          "indexed": false,
          "internalType": "uint256",
          "name": "time",
          "type": "uint256"
        }
      ],
      "name": "BattleEnd",
      "type": "event"
    },
    {
      "anonymous": false,
      "inputs": [
        {
          "indexed": true,
          "internalType": "address",
          "name": "by",
          "type": "address"
        },
        {
          "indexed": false,
          "internalType": "string",
          "name": "playername",
          "type": "string"
        },
        {
          "indexed": false,
          "internalType": "string",
          "name": "bossname",
          "type": "string"
        },
        {
          "indexed": false,
          "internalType": "uint256",
          "name": "time",
          "type": "uint256"
        }
      ],
      "name": "BattleStart",
      "type": "event"
    },
    {
      "anonymous": false,
      "inputs": [
        {
          "indexed": true,
          "internalType": "address",
          "name": "by",
          "type": "address"
        },
        {
          "indexed": false,
          "internalType": "string",
          "name": "name",
          "type": "string"
        },
        {
          "indexed": false,
          "internalType": "uint256",
          "name": "time",
          "type": "uint256"
        }
      ],
      "name": "BossCreated",
      "type": "event"
    },
    {
      "anonymous": false,
      "inputs": [
        {
          "indexed": true,
          "internalType": "address",
          "name": "by",
          "type": "address"
        },
        {
          "indexed": false,
          "internalType": "string",
          "name": "name",
          "type": "string"
        },
        {
          "indexed": false,
          "internalType": "uint256",
          "name": "time",
          "type": "uint256"
        }
      ],
      "name": "PlayerCreated",
      "type": "event"
    },
    {
      "anonymous": false,
      "inputs": [
        {
          "indexed": true,
          "internalType": "address",
          "name": "by",
          "type": "address"
        },
        {
          "indexed": false,
          "internalType": "uint256",
          "name": "time",
          "type": "uint256"
        }
      ],
      "name": "PlayerDeleted",
      "type": "event"
    },
    {
      "anonymous": false,
      "inputs": [
        {
          "indexed": true,
          "internalType": "address",
          "name": "by",
          "type": "address"
        },
        {
          "indexed": false,
          "internalType": "uint256",
          "name": "time",
          "type": "uint256"
        }
      ],
      "name": "Train",
      "type": "event"
    },
    {
      "inputs": [],
      "name": "CheckPlayerStats",
      "outputs": [
        {
          "internalType": "uint256",
          "name": "HP_",
          "type": "uint256"
        },
        {
          "internalType": "string",
          "name": "name_",
          "type": "string"
        },
        {
          "internalType": "uint256",
          "name": "date_",
          "type": "uint256"
        },
        {
          "internalType": "uint256",
          "name": "exp_",
          "type": "uint256"
        },
        {
          "internalType": "uint256",
          "name": "level_",
          "type": "uint256"
        }
      ],
      "stateMutability": "view",
      "type": "function",
      "constant": true
    },
    {
      "inputs": [],
      "name": "CheckBossStats",
      "outputs": [
        {
          "internalType": "uint256",
          "name": "HP_",
          "type": "uint256"
        },
        {
          "internalType": "string",
          "name": "name_",
          "type": "string"
        },
        {
          "internalType": "uint256",
          "name": "date_",
          "type": "uint256"
        },
        {
          "internalType": "uint256",
          "name": "exp_",
          "type": "uint256"
        },
        {
          "internalType": "uint256",
          "name": "level_",
          "type": "uint256"
        }
      ],
      "stateMutability": "view",
      "type": "function",
      "constant": true
    },
    {
      "inputs": [],
      "name": "TotalPlayers",
      "outputs": [
        {
          "internalType": "uint256",
          "name": "",
          "type": "uint256"
        }
      ],
      "stateMutability": "view",
      "type": "function",
      "constant": true
    },
    {
      "inputs": [],
      "name": "TotalBoss",
      "outputs": [
        {
          "internalType": "uint256",
          "name": "",
          "type": "uint256"
        }
      ],
      "stateMutability": "view",
      "type": "function",
      "constant": true
    },
    {
      "inputs": [],
      "name": "RevealGameMaster",
      "outputs": [
        {
          "internalType": "address",
          "name": "",
          "type": "address"
        }
      ],
      "stateMutability": "view",
      "type": "function",
      "constant": true
    },
    {
      "inputs": [],
      "name": "RemoveCharacters",
      "outputs": [
        {
          "internalType": "bool",
          "name": "success",
          "type": "bool"
        }
      ],
      "stateMutability": "nonpayable",
      "type": "function"
    },
    {
      "inputs": [],
      "name": "ShowCooldown",
      "outputs": [
        {
          "internalType": "uint256",
          "name": "",
          "type": "uint256"
        }
      ],
      "stateMutability": "view",
      "type": "function",
      "constant": true
    },
    {
      "inputs": [],
      "name": "TrainPlayer",
      "outputs": [
        {
          "internalType": "bool",
          "name": "success",
          "type": "bool"
        }
      ],
      "stateMutability": "nonpayable",
      "type": "function"
    },
    {
      "inputs": [],
      "name": "ShowPrize",
      "outputs": [
        {
          "internalType": "uint256",
          "name": "",
          "type": "uint256"
        }
      ],
      "stateMutability": "view",
      "type": "function",
      "constant": true
    },
    {
      "inputs": [
        {
          "internalType": "uint256",
          "name": "value",
          "type": "uint256"
        }
      ],
      "name": "_SetPrize",
      "outputs": [],
      "stateMutability": "nonpayable",
      "type": "function"
    },
    {
      "inputs": [],
      "name": "TimesTrained",
      "outputs": [
        {
          "internalType": "uint256",
          "name": "",
          "type": "uint256"
        }
      ],
      "stateMutability": "view",
      "type": "function",
      "constant": true
    },
    {
      "inputs": [],
      "name": "TimesBattled",
      "outputs": [
        {
          "internalType": "uint256",
          "name": "",
          "type": "uint256"
        }
      ],
      "stateMutability": "view",
      "type": "function",
      "constant": true
    },
    {
      "inputs": [
        {
          "internalType": "string",
          "name": "playername",
          "type": "string"
        },
        {
          "internalType": "string",
          "name": "bossname",
          "type": "string"
        }
      ],
      "name": "StartBattle",
      "outputs": [
        {
          "internalType": "bool",
          "name": "success",
          "type": "bool"
        }
      ],
      "stateMutability": "nonpayable",
      "type": "function"
    },
    {
      "inputs": [],
      "name": "EndBattle",
      "outputs": [
        {
          "internalType": "bool",
          "name": "success",
          "type": "bool"
        }
      ],
      "stateMutability": "nonpayable",
      "type": "function"
    }
  ],
  "bytecode": "0x608060405260006007556000600855600060095566038d7ea4c68000600a5560b4600b556000600c556000600d5534801561003957600080fd5b5032600f60006101000a81548173ffffffffffffffffffffffffffffffffffffffff021916908373ffffffffffffffffffffffffffffffffffffffff160217905550612f3d8061008a6000396000f3fe608060405234801561001057600080fd5b50600436106100ea5760003560e01c806394da45471161008c578063d1d0086611610066578063d1d008661461022f578063ea6570201461024d578063f01597c41461026b578063f92c39791461028d576100ea565b806394da4547146101d1578063baec90db146101f3578063d0caf63b14610211576100ea565b806360a39897116100c857806360a398971461014957806365fc48ba14610167578063717c064b1461018557806381b4357d146101a1576100ea565b80631562ccfb146100ef5780632e380be41461010d57806347480a281461012b575b600080fd5b6100f76102ab565b6040516101049190612696565b60405180910390f35b6101156105f7565b6040516101229190612696565b60405180910390f35b610133611658565b60405161014091906126f2565b60405180910390f35b610151611682565b60405161015e9190612726565b60405180910390f35b61016f6116c9565b60405161017c9190612696565b60405180910390f35b61019f600480360381019061019a9190612781565b6118a4565b005b6101bb60048036038101906101b691906128f4565b6118b1565b6040516101c89190612696565b60405180910390f35b6101d96119cc565b6040516101ea9594939291906129f4565b60405180910390f35b6101fb611c4b565b6040516102089190612726565b60405180910390f35b610219611c55565b6040516102269190612726565b60405180910390f35b610237611c9c565b6040516102449190612726565b60405180910390f35b610255611ca6565b6040516102629190612726565b60405180910390f35b610273611cbb565b6040516102849594939291906129f4565b60405180910390f35b610295611f3f565b6040516102a29190612726565b60405180910390f35b600060011515600160003373ffffffffffffffffffffffffffffffffffffffff1673ffffffffffffffffffffffffffffffffffffffff16815260200190815260200160002060009054906101000a900460ff16151514610340576040517f08c379a000000000000000000000000000000000000000000000000000000000815260040161033790612a9a565b60405180910390fd5b60011515600360003373ffffffffffffffffffffffffffffffffffffffff1673ffffffffffffffffffffffffffffffffffffffff16815260200190815260200160002060009054906101000a900460ff161515146103d3576040517f08c379a00000000000000000000000000000000000000000000000000000000081526004016103ca90612b06565b60405180910390fd5b6000803373ffffffffffffffffffffffffffffffffffffffff1673ffffffffffffffffffffffffffffffffffffffff16815260200190815260200160002060008082016000905560018201600061042a9190612598565b6002820160009055600382016000905560048201600090555050600260003373ffffffffffffffffffffffffffffffffffffffff1673ffffffffffffffffffffffffffffffffffffffff16815260200190815260200160002060008082016000905560018201600061049c9190612598565b60028201600090556003820160009055600482016000905550506000600160003373ffffffffffffffffffffffffffffffffffffffff1673ffffffffffffffffffffffffffffffffffffffff16815260200190815260200160002060006101000a81548160ff0219169083151502179055506000600360003373ffffffffffffffffffffffffffffffffffffffff1673ffffffffffffffffffffffffffffffffffffffff16815260200190815260200160002060006101000a81548160ff021916908315150217905550600e80548061057857610577612b26565b5b6001900381819060005260206000200160006101000a81549073ffffffffffffffffffffffffffffffffffffffff021916905590556001600e805490506105bf9190612b84565b50600760008154809291906105d390612bb8565b9190505550600860008154809291906105eb90612bb8565b91905055506001905090565b600060011515600160003373ffffffffffffffffffffffffffffffffffffffff1673ffffffffffffffffffffffffffffffffffffffff16815260200190815260200160002060009054906101000a900460ff1615151461068c576040517f08c379a000000000000000000000000000000000000000000000000000000000815260040161068390612a9a565b60405180910390fd5b60011515600360003373ffffffffffffffffffffffffffffffffffffffff1673ffffffffffffffffffffffffffffffffffffffff16815260200190815260200160002060009054906101000a900460ff1615151461071f576040517f08c379a000000000000000000000000000000000000000000000000000000000815260040161071690612b06565b60405180910390fd5b60011515600560003373ffffffffffffffffffffffffffffffffffffffff1673ffffffffffffffffffffffffffffffffffffffff16815260200190815260200160002060009054906101000a900460ff16151514156107cb57600b54600c546107889190612be2565b4210156107ca576040517f08c379a00000000000000000000000000000000000000000000000000000000081526004016107c190612c84565b60405180910390fd5b5b60556000803373ffffffffffffffffffffffffffffffffffffffff1673ffffffffffffffffffffffffffffffffffffffff168152602001908152602001600020600301600082825461081d9190612be2565b925050819055506101f46000803373ffffffffffffffffffffffffffffffffffffffff1673ffffffffffffffffffffffffffffffffffffffff16815260200190815260200160002060030154106109765760656000803373ffffffffffffffffffffffffffffffffffffffff1673ffffffffffffffffffffffffffffffffffffffff16815260200190815260200160002060030160008282546108c09190612be2565b925050819055506000803373ffffffffffffffffffffffffffffffffffffffff1673ffffffffffffffffffffffffffffffffffffffff168152602001908152602001600020600401600081548092919061091990612ca4565b91905055506000803373ffffffffffffffffffffffffffffffffffffffff1673ffffffffffffffffffffffffffffffffffffffff168152602001908152602001600020600001600081548092919061097090612ca4565b91905055505b6104386000803373ffffffffffffffffffffffffffffffffffffffff1673ffffffffffffffffffffffffffffffffffffffff1681526020019081526020016000206003015410610ab85760696000803373ffffffffffffffffffffffffffffffffffffffff1673ffffffffffffffffffffffffffffffffffffffff1681526020019081526020016000206003016000828254610a129190612be2565b9250508190555060036000803373ffffffffffffffffffffffffffffffffffffffff1673ffffffffffffffffffffffffffffffffffffffff168152602001908152602001600020600401819055506000803373ffffffffffffffffffffffffffffffffffffffff1673ffffffffffffffffffffffffffffffffffffffff1681526020019081526020016000206000016000815480929190610ab290612ca4565b91905055505b6107d06000803373ffffffffffffffffffffffffffffffffffffffff1673ffffffffffffffffffffffffffffffffffffffff1681526020019081526020016000206003015410610bfa57606e6000803373ffffffffffffffffffffffffffffffffffffffff1673ffffffffffffffffffffffffffffffffffffffff1681526020019081526020016000206003016000828254610b549190612be2565b9250508190555060046000803373ffffffffffffffffffffffffffffffffffffffff1673ffffffffffffffffffffffffffffffffffffffff168152602001908152602001600020600401819055506000803373ffffffffffffffffffffffffffffffffffffffff1673ffffffffffffffffffffffffffffffffffffffff1681526020019081526020016000206000016000815480929190610bf490612ca4565b91905055505b6113ce6000803373ffffffffffffffffffffffffffffffffffffffff1673ffffffffffffffffffffffffffffffffffffffff1681526020019081526020016000206003015410610d3c5760786000803373ffffffffffffffffffffffffffffffffffffffff1673ffffffffffffffffffffffffffffffffffffffff1681526020019081526020016000206003016000828254610c969190612be2565b9250508190555060056000803373ffffffffffffffffffffffffffffffffffffffff1673ffffffffffffffffffffffffffffffffffffffff168152602001908152602001600020600401819055506000803373ffffffffffffffffffffffffffffffffffffffff1673ffffffffffffffffffffffffffffffffffffffff1681526020019081526020016000206000016000815480929190610d3690612ca4565b91905055505b6129686000803373ffffffffffffffffffffffffffffffffffffffff1673ffffffffffffffffffffffffffffffffffffffff1681526020019081526020016000206003015410610e7e5760826000803373ffffffffffffffffffffffffffffffffffffffff1673ffffffffffffffffffffffffffffffffffffffff1681526020019081526020016000206003016000828254610dd89190612be2565b9250508190555060066000803373ffffffffffffffffffffffffffffffffffffffff1673ffffffffffffffffffffffffffffffffffffffff168152602001908152602001600020600401819055506000803373ffffffffffffffffffffffffffffffffffffffff1673ffffffffffffffffffffffffffffffffffffffff1681526020019081526020016000206000016000815480929190610e7890612ca4565b91905055505b6055600260003373ffffffffffffffffffffffffffffffffffffffff1673ffffffffffffffffffffffffffffffffffffffff1681526020019081526020016000206003016000828254610ed19190612be2565b925050819055506101f4600260003373ffffffffffffffffffffffffffffffffffffffff1673ffffffffffffffffffffffffffffffffffffffff168152602001908152602001600020600301541061102e576065600260003373ffffffffffffffffffffffffffffffffffffffff1673ffffffffffffffffffffffffffffffffffffffff1681526020019081526020016000206003016000828254610f769190612be2565b92505081905550600260003373ffffffffffffffffffffffffffffffffffffffff1673ffffffffffffffffffffffffffffffffffffffff1681526020019081526020016000206004016000815480929190610fd090612ca4565b9190505550600260003373ffffffffffffffffffffffffffffffffffffffff1673ffffffffffffffffffffffffffffffffffffffff168152602001908152602001600020600001600081548092919061102890612ca4565b91905055505b610438600260003373ffffffffffffffffffffffffffffffffffffffff1673ffffffffffffffffffffffffffffffffffffffff1681526020019081526020016000206003015410611174576069600260003373ffffffffffffffffffffffffffffffffffffffff1673ffffffffffffffffffffffffffffffffffffffff16815260200190815260200160002060030160008282546110cc9190612be2565b925050819055506003600260003373ffffffffffffffffffffffffffffffffffffffff1673ffffffffffffffffffffffffffffffffffffffff16815260200190815260200160002060040181905550600260003373ffffffffffffffffffffffffffffffffffffffff1673ffffffffffffffffffffffffffffffffffffffff168152602001908152602001600020600001600081548092919061116e90612ca4565b91905055505b6107d0600260003373ffffffffffffffffffffffffffffffffffffffff1673ffffffffffffffffffffffffffffffffffffffff16815260200190815260200160002060030154106112ba57606e600260003373ffffffffffffffffffffffffffffffffffffffff1673ffffffffffffffffffffffffffffffffffffffff16815260200190815260200160002060030160008282546112129190612be2565b925050819055506004600260003373ffffffffffffffffffffffffffffffffffffffff1673ffffffffffffffffffffffffffffffffffffffff16815260200190815260200160002060040181905550600260003373ffffffffffffffffffffffffffffffffffffffff1673ffffffffffffffffffffffffffffffffffffffff16815260200190815260200160002060000160008154809291906112b490612ca4565b91905055505b6113ce600260003373ffffffffffffffffffffffffffffffffffffffff1673ffffffffffffffffffffffffffffffffffffffff1681526020019081526020016000206003015410611400576078600260003373ffffffffffffffffffffffffffffffffffffffff1673ffffffffffffffffffffffffffffffffffffffff16815260200190815260200160002060030160008282546113589190612be2565b925050819055506005600260003373ffffffffffffffffffffffffffffffffffffffff1673ffffffffffffffffffffffffffffffffffffffff16815260200190815260200160002060040181905550600260003373ffffffffffffffffffffffffffffffffffffffff1673ffffffffffffffffffffffffffffffffffffffff16815260200190815260200160002060000160008154809291906113fa90612ca4565b91905055505b612968600260003373ffffffffffffffffffffffffffffffffffffffff1673ffffffffffffffffffffffffffffffffffffffff1681526020019081526020016000206003015410611546576082600260003373ffffffffffffffffffffffffffffffffffffffff1673ffffffffffffffffffffffffffffffffffffffff168152602001908152602001600020600301600082825461149e9190612be2565b925050819055506006600260003373ffffffffffffffffffffffffffffffffffffffff1673ffffffffffffffffffffffffffffffffffffffff16815260200190815260200160002060040181905550600260003373ffffffffffffffffffffffffffffffffffffffff1673ffffffffffffffffffffffffffffffffffffffff168152602001908152602001600020600001600081548092919061154090612ca4565b91905055505b600d600081548092919061155990612ca4565b9190505550600d54600460003373ffffffffffffffffffffffffffffffffffffffff1673ffffffffffffffffffffffffffffffffffffffff168152602001908152602001600020819055506001600560003373ffffffffffffffffffffffffffffffffffffffff1673ffffffffffffffffffffffffffffffffffffffff16815260200190815260200160002060006101000a81548160ff02191690831515021790555042600c819055503373ffffffffffffffffffffffffffffffffffffffff167fea9674f720aa85469cfc43b55ca18a69948c84e4cad433b3ca58e7f457bb382c426040516116499190612726565b60405180910390a26001905090565b6000600f60009054906101000a900473ffffffffffffffffffffffffffffffffffffffff16905090565b6000600660003373ffffffffffffffffffffffffffffffffffffffff1673ffffffffffffffffffffffffffffffffffffffff16815260200190815260200160002054905090565b600060011515600160003373ffffffffffffffffffffffffffffffffffffffff1673ffffffffffffffffffffffffffffffffffffffff16815260200190815260200160002060009054906101000a900460ff1615151461175e576040517f08c379a000000000000000000000000000000000000000000000000000000000815260040161175590612a9a565b60405180910390fd5b60011515600360003373ffffffffffffffffffffffffffffffffffffffff1673ffffffffffffffffffffffffffffffffffffffff16815260200190815260200160002060009054906101000a900460ff161515146117f1576040517f08c379a00000000000000000000000000000000000000000000000000000000081526004016117e890612b06565b60405180910390fd5b3373ffffffffffffffffffffffffffffffffffffffff167fb6c9c43d9e5ca669625abaed5102cd804b95c60e96b2086a1895fe8c878ca2d0426040516118379190612726565b60405180910390a26009600081548092919061185290612ca4565b9190505550600954600660003373ffffffffffffffffffffffffffffffffffffffff1673ffffffffffffffffffffffffffffffffffffffff168152602001908152602001600020819055506001905090565b6118ad81611f49565b5050565b60003373ffffffffffffffffffffffffffffffffffffffff167f519629ca89acdbc86a9e08186947a28cd6f65fad7de39c192511752fabd465208484426040516118fd93929190612ced565b60405180910390a261190d611c4b565b5061191783612035565b503373ffffffffffffffffffffffffffffffffffffffff167f57859b859ff7802c02411d192203ec1de6b79c2a70ede9c1b968be3496dd0f3b8442604051611960929190612d32565b60405180910390a261197182612315565b503373ffffffffffffffffffffffffffffffffffffffff167f3020128af09e69168527226f41b5e675d908822fc2d8625aba35cd147ccb467083426040516119ba929190612d32565b60405180910390a26001905092915050565b60006060600080600060011515600160003373ffffffffffffffffffffffffffffffffffffffff1673ffffffffffffffffffffffffffffffffffffffff16815260200190815260200160002060009054906101000a900460ff16151514611a68576040517f08c379a0000000000000000000000000000000000000000000000000000000008152600401611a5f90612a9a565b60405180910390fd5b6000803373ffffffffffffffffffffffffffffffffffffffff1673ffffffffffffffffffffffffffffffffffffffff1681526020019081526020016000206000015494506000803373ffffffffffffffffffffffffffffffffffffffff1673ffffffffffffffffffffffffffffffffffffffff1681526020019081526020016000206001018054611af890612d91565b80601f0160208091040260200160405190810160405280929190818152602001828054611b2490612d91565b8015611b715780601f10611b4657610100808354040283529160200191611b71565b820191906000526020600020905b815481529060010190602001808311611b5457829003601f168201915b505050505093506000803373ffffffffffffffffffffffffffffffffffffffff1673ffffffffffffffffffffffffffffffffffffffff1681526020019081526020016000206002015492506000803373ffffffffffffffffffffffffffffffffffffffff1673ffffffffffffffffffffffffffffffffffffffff1681526020019081526020016000206003015491506000803373ffffffffffffffffffffffffffffffffffffffff1673ffffffffffffffffffffffffffffffffffffffff1681526020019081526020016000206004015490509091929394565b6000600a54905090565b6000600460003373ffffffffffffffffffffffffffffffffffffffff1673ffffffffffffffffffffffffffffffffffffffff16815260200190815260200160002054905090565b6000600754905090565b600042600b54611cb69190612be2565b905090565b60006060600080600060011515600360003373ffffffffffffffffffffffffffffffffffffffff1673ffffffffffffffffffffffffffffffffffffffff16815260200190815260200160002060009054906101000a900460ff16151514611d57576040517f08c379a0000000000000000000000000000000000000000000000000000000008152600401611d4e90612b06565b60405180910390fd5b600260003373ffffffffffffffffffffffffffffffffffffffff1673ffffffffffffffffffffffffffffffffffffffff168152602001908152602001600020600001549450600260003373ffffffffffffffffffffffffffffffffffffffff1673ffffffffffffffffffffffffffffffffffffffff1681526020019081526020016000206001018054611de990612d91565b80601f0160208091040260200160405190810160405280929190818152602001828054611e1590612d91565b8015611e625780601f10611e3757610100808354040283529160200191611e62565b820191906000526020600020905b815481529060010190602001808311611e4557829003601f168201915b50505050509350600260003373ffffffffffffffffffffffffffffffffffffffff1673ffffffffffffffffffffffffffffffffffffffff168152602001908152602001600020600201549250600260003373ffffffffffffffffffffffffffffffffffffffff1673ffffffffffffffffffffffffffffffffffffffff168152602001908152602001600020600301549150600260003373ffffffffffffffffffffffffffffffffffffffff1673ffffffffffffffffffffffffffffffffffffffff1681526020019081526020016000206004015490509091929394565b6000600854905090565b6000600f60009054906101000a900473ffffffffffffffffffffffffffffffffffffffff1673ffffffffffffffffffffffffffffffffffffffff163373ffffffffffffffffffffffffffffffffffffffff1614611fdb576040517f08c379a0000000000000000000000000000000000000000000000000000000008152600401611fd290612e0f565b60405180910390fd5b662386f26fc10000821015612025576040517f08c379a000000000000000000000000000000000000000000000000000000000815260040161201c90612e7b565b60405180910390fd5b81600a8190555060019050919050565b6000801515600160003373ffffffffffffffffffffffffffffffffffffffff1673ffffffffffffffffffffffffffffffffffffffff16815260200190815260200160002060009054906101000a900460ff161515146120c9576040517f08c379a00000000000000000000000000000000000000000000000000000000081526004016120c090612ee7565b60405180910390fd5b60166000803373ffffffffffffffffffffffffffffffffffffffff1673ffffffffffffffffffffffffffffffffffffffff16815260200190815260200160002060000181905550816000803373ffffffffffffffffffffffffffffffffffffffff1673ffffffffffffffffffffffffffffffffffffffff16815260200190815260200160002060010190805190602001906121659291906125d8565b50426000803373ffffffffffffffffffffffffffffffffffffffff1673ffffffffffffffffffffffffffffffffffffffff1681526020019081526020016000206002018190555060008060003373ffffffffffffffffffffffffffffffffffffffff1673ffffffffffffffffffffffffffffffffffffffff1681526020019081526020016000206003018190555060016000803373ffffffffffffffffffffffffffffffffffffffff1673ffffffffffffffffffffffffffffffffffffffff1681526020019081526020016000206004018190555060018060003373ffffffffffffffffffffffffffffffffffffffff1673ffffffffffffffffffffffffffffffffffffffff16815260200190815260200160002060006101000a81548160ff021916908315150217905550600e339080600181540180825580915050600190039060005260206000200160009091909190916101000a81548173ffffffffffffffffffffffffffffffffffffffff021916908373ffffffffffffffffffffffffffffffffffffffff1602179055506007600081548092919061230790612ca4565b919050555060019050919050565b6000801515600360003373ffffffffffffffffffffffffffffffffffffffff1673ffffffffffffffffffffffffffffffffffffffff16815260200190815260200160002060009054906101000a900460ff161515146123a9576040517f08c379a00000000000000000000000000000000000000000000000000000000081526004016123a090612b06565b60405180910390fd5b6019600260003373ffffffffffffffffffffffffffffffffffffffff1673ffffffffffffffffffffffffffffffffffffffff1681526020019081526020016000206000018190555081600260003373ffffffffffffffffffffffffffffffffffffffff1673ffffffffffffffffffffffffffffffffffffffff16815260200190815260200160002060010190805190602001906124479291906125d8565b5042600260003373ffffffffffffffffffffffffffffffffffffffff1673ffffffffffffffffffffffffffffffffffffffff168152602001908152602001600020600201819055506000600260003373ffffffffffffffffffffffffffffffffffffffff1673ffffffffffffffffffffffffffffffffffffffff168152602001908152602001600020600301819055506001600260003373ffffffffffffffffffffffffffffffffffffffff1673ffffffffffffffffffffffffffffffffffffffff168152602001908152602001600020600401819055506001600360003373ffffffffffffffffffffffffffffffffffffffff1673ffffffffffffffffffffffffffffffffffffffff16815260200190815260200160002060006101000a81548160ff0219169083151502179055506008600081548092919061258a90612ca4565b919050555060019050919050565b5080546125a490612d91565b6000825580601f106125b657506125d5565b601f0160209004906000526020600020908101906125d4919061265e565b5b50565b8280546125e490612d91565b90600052602060002090601f016020900481019282612606576000855561264d565b82601f1061261f57805160ff191683800117855561264d565b8280016001018555821561264d579182015b8281111561264c578251825591602001919060010190612631565b5b50905061265a919061265e565b5090565b5b8082111561267757600081600090555060010161265f565b5090565b60008115159050919050565b6126908161267b565b82525050565b60006020820190506126ab6000830184612687565b92915050565b600073ffffffffffffffffffffffffffffffffffffffff82169050919050565b60006126dc826126b1565b9050919050565b6126ec816126d1565b82525050565b600060208201905061270760008301846126e3565b92915050565b6000819050919050565b6127208161270d565b82525050565b600060208201905061273b6000830184612717565b92915050565b6000604051905090565b600080fd5b600080fd5b61275e8161270d565b811461276957600080fd5b50565b60008135905061277b81612755565b92915050565b6000602082840312156127975761279661274b565b5b60006127a58482850161276c565b91505092915050565b600080fd5b600080fd5b6000601f19601f8301169050919050565b7f4e487b7100000000000000000000000000000000000000000000000000000000600052604160045260246000fd5b612801826127b8565b810181811067ffffffffffffffff821117156128205761281f6127c9565b5b80604052505050565b6000612833612741565b905061283f82826127f8565b919050565b600067ffffffffffffffff82111561285f5761285e6127c9565b5b612868826127b8565b9050602081019050919050565b82818337600083830152505050565b600061289761289284612844565b612829565b9050828152602081018484840111156128b3576128b26127b3565b5b6128be848285612875565b509392505050565b600082601f8301126128db576128da6127ae565b5b81356128eb848260208601612884565b91505092915050565b6000806040838503121561290b5761290a61274b565b5b600083013567ffffffffffffffff81111561292957612928612750565b5b612935858286016128c6565b925050602083013567ffffffffffffffff81111561295657612955612750565b5b612962858286016128c6565b9150509250929050565b600081519050919050565b600082825260208201905092915050565b60005b838110156129a657808201518184015260208101905061298b565b838111156129b5576000848401525b50505050565b60006129c68261296c565b6129d08185612977565b93506129e0818560208601612988565b6129e9816127b8565b840191505092915050565b600060a082019050612a096000830188612717565b8181036020830152612a1b81876129bb565b9050612a2a6040830186612717565b612a376060830185612717565b612a446080830184612717565b9695505050505050565b7f596f7520646f6e74206f776e2061206368617261637465720000000000000000600082015250565b6000612a84601883612977565b9150612a8f82612a4e565b602082019050919050565b60006020820190508181036000830152612ab381612a77565b9050919050565b7f4e6f20626f737320437265617465640000000000000000000000000000000000600082015250565b6000612af0600f83612977565b9150612afb82612aba565b602082019050919050565b60006020820190508181036000830152612b1f81612ae3565b9050919050565b7f4e487b7100000000000000000000000000000000000000000000000000000000600052603160045260246000fd5b7f4e487b7100000000000000000000000000000000000000000000000000000000600052601160045260246000fd5b6000612b8f8261270d565b9150612b9a8361270d565b925082821015612bad57612bac612b55565b5b828203905092915050565b6000612bc38261270d565b91506000821415612bd757612bd6612b55565b5b600182039050919050565b6000612bed8261270d565b9150612bf88361270d565b9250827fffffffffffffffffffffffffffffffffffffffffffffffffffffffffffffffff03821115612c2d57612c2c612b55565b5b828201905092915050565b7f576169742033206d696e7574657320746f20747261696e20616761696e000000600082015250565b6000612c6e601d83612977565b9150612c7982612c38565b602082019050919050565b60006020820190508181036000830152612c9d81612c61565b9050919050565b6000612caf8261270d565b91507fffffffffffffffffffffffffffffffffffffffffffffffffffffffffffffffff821415612ce257612ce1612b55565b5b600182019050919050565b60006060820190508181036000830152612d0781866129bb565b90508181036020830152612d1b81856129bb565b9050612d2a6040830184612717565b949350505050565b60006040820190508181036000830152612d4c81856129bb565b9050612d5b6020830184612717565b9392505050565b7f4e487b7100000000000000000000000000000000000000000000000000000000600052602260045260246000fd5b60006002820490506001821680612da957607f821691505b60208210811415612dbd57612dbc612d62565b5b50919050565b7f596f7520617265207374696c6c206120524f4f4b494500000000000000000000600082015250565b6000612df9601683612977565b9150612e0482612dc3565b602082019050919050565b60006020820190508181036000830152612e2881612dec565b9050919050565b7f5072697a6520697320746f6f206c6f7700000000000000000000000000000000600082015250565b6000612e65601083612977565b9150612e7082612e2f565b602082019050919050565b60006020820190508181036000830152612e9481612e58565b9050919050565b7f596f7520616c7265616479206f776e2061206368617261637465720000000000600082015250565b6000612ed1601b83612977565b9150612edc82612e9b565b602082019050919050565b60006020820190508181036000830152612f0081612ec4565b905091905056fea26469706673582212205f75dce7aa4c8b69971a603a2720a51c6449eabd3aa45820b4b179b936c2b49064736f6c634300080b0033",
  "immutableReferences": {},
  "source": "pragma solidity ^0.8.11;\r\ncontract RPG{\r\n    // STRUCT FOR PLAYER CHARACTER\r\n    struct Player{\r\n        uint HP;\r\n        string name;\r\n        uint createdAt;\r\n        uint exp;\r\n        uint level;\r\n    }\r\n    // STRUCT FOR BOSS CHARACTER\r\n    struct Boss{\r\n        uint HP;\r\n        string name;\r\n         uint createdAt;\r\n         uint exp;\r\n        uint level;\r\n    }\r\n    //MAPPING ADDRESS TO PLAYER STRUCT\r\n   mapping(address => Player)player;\r\n   //MAPPING ADDRESS TO BOOLEAN TO CHECK IF ADDRESS OWNS A PLAYER\r\n   mapping(address => bool)playerOwner;\r\n   //MAPPING ADDRESS TO BOSS STRUCT     \r\n   mapping(address => Boss)boss;\r\n    //MAPPING ADDRESS TO BOOLEAN TO CHECK IF ADDRESS OWNS A BOSS\r\n   mapping(address => bool)bossOwner;\r\n   //MAPPING TO CHECK HOW MANY TIMES AN ADDRESS HAS TRAINED\r\n   mapping(address => uint)Trained;\r\n   //MAPPING TO CHECK IF AN ADDRESS HAS TRAINED\r\n   mapping(address => bool)isTrained;\r\n   //Mapping TO CHECK TIMES USER HAS BATTLED\r\n   mapping(address => uint)Battle;\r\n   // PLAYER COUNT\r\n    uint private playerID = 0;\r\n    //BOSS COUNT\r\n    uint private bossID = 0;\r\n    //BATTLE COUNT\r\n    uint private battles = 0;\r\n    //PRIZE MONEY\r\n    uint private prize = 0.001 ether;\r\n    //COOLDOWN FOR TRAINING\r\n    uint private cooldown = 3 minutes;\r\n    //TIME WHEN PLAYER TRAINED\r\n    uint private traintime = 0;\r\n    //TIMES AN ADDRESS HAS TRAINED\r\n    uint private timestrained = 0;\r\n    //ARRAY TO STORE OWNERS\r\n    address[]private Owners;\r\n    //ADDRESS OF OWNER OF CONTRACT \r\n   address private gameMaster;\r\n\r\n   event PlayerCreated(address indexed by,string name,uint time);\r\n   event BossCreated(address indexed by,string name,uint time);\r\n   event PlayerDeleted(address indexed by,uint time);\r\n   event Train(address indexed by,uint time);\r\n   event BattleStart(address indexed by,string playername,string bossname, uint time);\r\n   event BattleEnd(address indexed by, uint time);\r\n\r\n   modifier onlyMaster(){\r\n       require(msg.sender == gameMaster,\"You are still a ROOKIE\");\r\n       _;\r\n   }\r\n\r\n   modifier isPlayerOwner(){\r\n       require(playerOwner[msg.sender] == true,\"You dont own a character\");\r\n       _;\r\n   }\r\n   modifier isBossOwner(){\r\n       require(bossOwner[msg.sender] == true,\"No boss Created\");\r\n       _;\r\n   }\r\n    modifier isNotBossOwner(){\r\n       require(bossOwner[msg.sender] == false,\"No boss Created\");\r\n       _;\r\n   }\r\n    modifier isNotPlayerOwner(){\r\n       require(playerOwner[msg.sender] == false,\"You already own a character\");\r\n       _;\r\n   }\r\n\r\n\r\n   constructor(){\r\n       gameMaster = tx.origin;\r\n   }\r\n\r\n// CREATES A PLAYER LEAVE AS INTERNAL\r\n    function CreatePlayer(string memory _name) isNotPlayerOwner internal returns(bool success){\r\n        player[msg.sender].HP = 22;\r\n        player[msg.sender].name = _name;\r\n        player[msg.sender].createdAt = block.timestamp;\r\n        player[msg.sender].exp = 0;\r\n        player[msg.sender].level = 1;\r\n        playerOwner[msg.sender] = true;\r\n        Owners.push(msg.sender);\r\n        playerID++;\r\n        return true;\r\n    }\r\n// CREATES BOSS LEAVE AS INTERNAL\r\n    function CreateBoss(string memory _name) isNotBossOwner internal returns(bool success){\r\n        boss[msg.sender].HP = 25;\r\n        boss[msg.sender].name = _name;\r\n        boss[msg.sender].createdAt = block.timestamp;\r\n        boss[msg.sender].exp = 0;\r\n        boss[msg.sender].level = 1;\r\n        bossOwner[msg.sender] = true;\r\n        bossID++;\r\n        return true;\r\n    }\r\n    \r\n//CHECK PLAYER STATS LEAVE AS PUBLIC\r\n    function CheckPlayerStats() isPlayerOwner public view returns(uint HP_,string memory name_, uint date_,uint exp_,uint level_){\r\n        HP_ = player[msg.sender].HP;\r\n        name_    = player[msg.sender].name; \r\n        date_ =  player[msg.sender].createdAt; \r\n        exp_ =   player[msg.sender].exp;\r\n        level_ = player[msg.sender].level;\r\n\r\n    }\r\n    //CHECK BOSS STATS LEAVE AS PUBLIC\r\n     function CheckBossStats() isBossOwner public view returns(uint HP_,string memory name_, uint date_,uint exp_,uint level_){\r\n        HP_ = boss[msg.sender].HP;\r\n        name_    = boss[msg.sender].name; \r\n        date_ =  boss[msg.sender].createdAt; \r\n         exp_ =   boss[msg.sender].exp;\r\n        level_ = boss[msg.sender].level;\r\n    }\r\n\r\n//RETURNS TOTAL PLAYERS LEAVE AS PUBLIC\r\n    function TotalPlayers()public view returns(uint){\r\n       return playerID;\r\n    }\r\n\r\n//RETURN TOTOAL BOSS LEAVE AS PUBLIC\r\n    function TotalBoss()public view returns(uint){\r\n       return bossID;\r\n    }\r\n\r\n//RETURNS OWNER OF CONTRACT LEAVE AS PUBLIC\r\n    function RevealGameMaster()public view returns(address){\r\n        return gameMaster;\r\n    }\r\n\r\n    //REMOVES BOTH BOSS AND PLAYER CREATED BY USER USE WITH CARE LEAVE AS PUBLIC TOO\r\n\r\n    function RemoveCharacters() isPlayerOwner isBossOwner public returns(bool success){\r\n        delete player[msg.sender];\r\n        delete boss[msg.sender];\r\n        playerOwner[msg.sender] = false;\r\n        bossOwner[msg.sender] = false;\r\n        Owners.pop();\r\n        Owners.length -1;\r\n        playerID--;\r\n        bossID--;\r\n        return true;\r\n    }\r\n    //SHOW TIME UNTIL NEXT TRAINING LEAVE AS PUBLIC\r\n    function ShowCooldown()public view returns(uint){\r\n        return cooldown + block.timestamp;\r\n    }\r\n  \r\n\r\n    // THIS IS SUS BUT WHEN USER TRAINS PLAYER USER ALSO TRAINS BOSS *LOL* LEAVE AS PUBLIC\r\n    function TrainPlayer() isPlayerOwner isBossOwner public returns(bool success){ \r\n        if(isTrained[msg.sender] == true){\r\n            require(block.timestamp >= traintime + cooldown,\"Wait 3 minutes to train again\");\r\n        }   \r\n        player[msg.sender].exp += 85;\r\n        if(player[msg.sender].exp >= 500){\r\n            player[msg.sender].exp += 101;\r\n            player[msg.sender].level++;\r\n            player[msg.sender].HP++;\r\n        }\r\n        if(player[msg.sender].exp >= 1080){\r\n            player[msg.sender].exp += 105;\r\n            player[msg.sender].level = 3;\r\n            player[msg.sender].HP++;\r\n        }\r\n        if(player[msg.sender].exp >= 2000){\r\n            player[msg.sender].exp += 110;\r\n            player[msg.sender].level = 4;\r\n            player[msg.sender].HP++;\r\n        }\r\n        if(player[msg.sender].exp >= 5070){\r\n            player[msg.sender].exp += 120;\r\n            player[msg.sender].level = 5;\r\n            player[msg.sender].HP++;\r\n        }\r\n        if(player[msg.sender].exp >= 10600){\r\n            player[msg.sender].exp += 130;\r\n            player[msg.sender].level = 6;\r\n            player[msg.sender].HP++;\r\n        }\r\n        boss[msg.sender].exp += 85;\r\n        if(boss[msg.sender].exp >= 500){\r\n            boss[msg.sender].exp += 101;\r\n            boss[msg.sender].level++;\r\n            boss[msg.sender].HP++;\r\n        }\r\n        if(boss[msg.sender].exp >= 1080){\r\n            boss[msg.sender].exp += 105;\r\n            boss[msg.sender].level = 3;\r\n            boss[msg.sender].HP++;\r\n        }\r\n        if(boss[msg.sender].exp >= 2000){\r\n            boss[msg.sender].exp += 110;\r\n            boss[msg.sender].level = 4;\r\n            boss[msg.sender].HP++;\r\n        }\r\n        if(boss[msg.sender].exp >= 5070){\r\n            boss[msg.sender].exp += 120;\r\n            boss[msg.sender].level = 5;\r\n            boss[msg.sender].HP++;\r\n        }\r\n        if(boss[msg.sender].exp >= 10600){\r\n            boss[msg.sender].exp += 130;\r\n            boss[msg.sender].level = 6;\r\n            boss[msg.sender].HP++;\r\n        }\r\n        timestrained++;\r\n        Trained[msg.sender] = timestrained;\r\n        isTrained[msg.sender] = true;\r\n        traintime = block.timestamp;\r\n        emit Train(msg.sender,block.timestamp);\r\n        return true;\r\n    }\r\n // REVEALS PRIZE AFTER EACH BATTLE LEAVE AS PUBLIC\r\n    function ShowPrize()public view returns(uint){\r\n        return prize;\r\n    }\r\n   //PUBLIC FUNCTION TO SET PRIZE AMOUNT\r\n    function _SetPrize(uint value)public{\r\n        SetPrize(value);\r\n    }\r\n //SETS PRIZE MONEY IF OWNER WANTS TO CHANGE IT SET AS INTERNAL\r\n    function SetPrize(uint _prize)internal onlyMaster returns(bool success){\r\n        require(_prize >= 0.01 ether,\"Prize is too low\");\r\n        prize = _prize;\r\n        return true;\r\n    }\r\n    //FUNCTION TO CHECK HOW MANY TIME PLAYER HAS TRAINED LEAVE AS PUBLIC\r\n    function TimesTrained()public view returns(uint){\r\n        return Trained[msg.sender];\r\n    }\r\n    //FUNCTION TO CHECK TIMES BATTLED\r\n    function TimesBattled()public view returns(uint){\r\n        return Battle[msg.sender];\r\n    }\r\n\r\n  //FUNCTION TO START BATTLE ALSO CREATES PLAYER AND BOSS AS A RESULT LEAVE AS PUBLIC \r\n    function StartBattle(string memory playername,string memory bossname) public returns(bool success){\r\n        emit BattleStart(msg.sender, playername, bossname,block.timestamp);\r\n        ShowPrize();\r\n        CreatePlayer(playername);\r\n        emit PlayerCreated(msg.sender, playername,block.timestamp);\r\n        CreateBoss(bossname);\r\n        emit BossCreated(msg.sender, bossname,block.timestamp);\r\n        return true;\r\n    }\r\n//FUNCTION TO END BATTLE MUST OWN PLAYER AND BOSS TO CALL FUNCTION\r\n    function EndBattle() public isPlayerOwner isBossOwner returns(bool success){\r\n        emit BattleEnd(msg.sender,block.timestamp);\r\n       // require(address(this).balance >= prize,\"Balance not sufficient\");\r\n        //payable(msg.sender).transfer(prize);\r\n        battles++;\r\n        Battle[msg.sender] = battles;\r\n        return true;\r\n    }\r\n    \r\n   \r\n\r\n   \r\n}",
  "sourcePath": "C:\\Users\\MAYOWA\\Desktop\\RPG\\contracts\\RPG.sol",
  "compiler": {
    "name": "solc",
    "version": "0.8.11+commit.d7f03943.Emscripten.clang"
  },
  "schemaVersion": "3.4.5",
  "updatedAt": "2022-07-02T18:51:03.629Z",
  "networkType": "ethereum",
  "devdoc": {
    "kind": "dev",
    "methods": {},
    "version": 1
  },
  "userdoc": {
    "kind": "user",
    "methods": {},
    "version": 1
  }
}